{
  "contractName": "PasswordsManager",
  "abi": [
    {
      "inputs": [],
      "stateMutability": "nonpayable",
      "type": "constructor"
    },
    {
      "inputs": [
        {
          "internalType": "string",
          "name": "username",
          "type": "string"
        },
        {
          "internalType": "string",
          "name": "password",
          "type": "string"
        },
        {
          "internalType": "string",
          "name": "secretkey",
          "type": "string"
        }
      ],
      "name": "addUser",
      "outputs": [],
      "stateMutability": "nonpayable",
      "type": "function"
    },
    {
      "inputs": [],
      "name": "viewUsers",
      "outputs": [
        {
          "internalType": "string[]",
          "name": "",
          "type": "string[]"
        },
        {
          "internalType": "string[]",
          "name": "",
          "type": "string[]"
        },
        {
          "internalType": "string[]",
          "name": "",
          "type": "string[]"
        }
      ],
      "stateMutability": "view",
      "type": "function",
      "constant": true
    },
    {
      "inputs": [
        {
          "internalType": "string",
          "name": "owner",
          "type": "string"
        },
        {
          "internalType": "string",
          "name": "website",
          "type": "string"
        },
        {
          "internalType": "string",
          "name": "username",
          "type": "string"
        },
        {
          "internalType": "string",
          "name": "password",
          "type": "string"
        },
        {
          "internalType": "string",
          "name": "notes",
          "type": "string"
        }
      ],
      "name": "addPassword",
      "outputs": [],
      "stateMutability": "nonpayable",
      "type": "function"
    },
    {
      "inputs": [],
      "name": "viewPasswords",
      "outputs": [
        {
          "internalType": "uint256[]",
          "name": "",
          "type": "uint256[]"
        },
        {
          "internalType": "string[]",
          "name": "",
          "type": "string[]"
        },
        {
          "internalType": "string[]",
          "name": "",
          "type": "string[]"
        },
        {
          "internalType": "string[]",
          "name": "",
          "type": "string[]"
        },
        {
          "internalType": "string[]",
          "name": "",
          "type": "string[]"
        },
        {
          "internalType": "string[]",
          "name": "",
          "type": "string[]"
        }
      ],
      "stateMutability": "view",
      "type": "function",
      "constant": true
    },
    {
      "inputs": [
        {
          "internalType": "uint256",
          "name": "id1",
          "type": "uint256"
        },
        {
          "internalType": "string",
          "name": "website",
          "type": "string"
        },
        {
          "internalType": "string",
          "name": "username",
          "type": "string"
        },
        {
          "internalType": "string",
          "name": "password",
          "type": "string"
        },
        {
          "internalType": "string",
          "name": "notes",
          "type": "string"
        }
      ],
      "name": "updatePassword",
      "outputs": [],
      "stateMutability": "nonpayable",
      "type": "function"
    },
    {
      "inputs": [
        {
          "internalType": "uint256",
          "name": "id1",
          "type": "uint256"
        }
      ],
      "name": "deletePassword",
      "outputs": [],
      "stateMutability": "nonpayable",
      "type": "function"
    }
  ],
  "bytecode": "0x608060405234801561001057600080fd5b506000600a81905550611852806100286000396000f3fe608060405234801561001057600080fd5b50600436106100625760003560e01c806314ebdb79146100675780638d1b180a1461008757806395c5fed4146100a3578063c3b3863c146100bf578063c48ccb12146100db578063eb5fa55b146100f7575b600080fd5b61006f61011a565b60405161007e93929190610dba565b60405180910390f35b6100a1600480360381019061009c9190610f4f565b6103a9565b005b6100bd60048036038101906100b89190611056565b6104fe565b005b6100d960048036038101906100d49190611133565b610645565b005b6100f560048036038101906100f09190611160565b6106cd565b005b6100ff6107ce565b60405161011196959493929190611309565b60405180910390f35b606080606060006001600282805480602002602001604051908101604052809291908181526020016000905b828210156101f2578382906000526020600020018054610165906113c3565b80601f0160208091040260200160405190810160405280929190818152602001828054610191906113c3565b80156101de5780601f106101b3576101008083540402835291602001916101de565b820191906000526020600020905b8154815290600101906020018083116101c157829003601f168201915b505050505081526020019060010190610146565b50505050925081805480602002602001604051908101604052809291908181526020016000905b828210156102c5578382906000526020600020018054610238906113c3565b80601f0160208091040260200160405190810160405280929190818152602001828054610264906113c3565b80156102b15780601f10610286576101008083540402835291602001916102b1565b820191906000526020600020905b81548152906001019060200180831161029457829003601f168201915b505050505081526020019060010190610219565b50505050915080805480602002602001604051908101604052809291908181526020016000905b8282101561039857838290600052602060002001805461030b906113c3565b80601f0160208091040260200160405190810160405280929190818152602001828054610337906113c3565b80156103845780601f1061035957610100808354040283529160200191610384565b820191906000526020600020905b81548152906001019060200180831161036757829003601f168201915b5050505050815260200190600101906102ec565b505050509050925092509250909192565b6001600a60008282546103bc9190611423565b925050819055506003600a5490806001815401808255809150506001900390600052602060002001600090919091909150556004859080600181540180825580915050600190039060005260206000200160009091909190915090816104229190611603565b506005849080600181540180825580915050600190039060005260206000200160009091909190915090816104579190611603565b5060068390806001815401808255809150506001900390600052602060002001600090919091909150908161048c9190611603565b506007829080600181540180825580915050600190039060005260206000200160009091909190915090816104c19190611603565b506008819080600181540180825580915050600190039060005260206000200160009091909190915090816104f69190611603565b505050505050565b60098360405161050e9190611711565b908152602001604051809103902060009054906101000a900460ff161561056a576040517f08c379a000000000000000000000000000000000000000000000000000000000815260040161056190611785565b60405180910390fd5b60008390806001815401808255809150506001900390600052602060002001600090919091909150908161059e9190611603565b506001829080600181540180825580915050600190039060005260206000200160009091909190915090816105d39190611603565b506002819080600181540180825580915050600190039060005260206000200160009091909190915090816106089190611603565b50600160098460405161061b9190611711565b908152602001604051809103902060006101000a81548160ff021916908315150217905550505050565b60005b6003805490508110156106c95760038181548110610669576106686117a5565b5b906000526020600020015482036106b657604051806020016040528060008152506004828154811061069e5761069d6117a5565b5b9060005260206000200190816106b49190611603565b505b80806106c1906117d4565b915050610648565b5050565b60005b6003805490508110156107c65785600382815481106106f2576106f16117a5565b5b9060005260206000200154036107b3578460058281548110610717576107166117a5565b5b90600052602060002001908161072d9190611603565b508360068281548110610743576107426117a5565b5b9060005260206000200190816107599190611603565b50826007828154811061076f5761076e6117a5565b5b9060005260206000200190816107859190611603565b50816008828154811061079b5761079a6117a5565b5b9060005260206000200190816107b19190611603565b505b80806107be906117d4565b9150506106d0565b505050505050565b6060806060806060806003600460056006600760088580548060200260200160405190810160405280929190818152602001828054801561082e57602002820191906000526020600020905b81548152602001906001019080831161081a575b5050505050955084805480602002602001604051908101604052809291908181526020016000905b82821015610902578382906000526020600020018054610875906113c3565b80601f01602080910402602001604051908101604052809291908181526020018280546108a1906113c3565b80156108ee5780601f106108c3576101008083540402835291602001916108ee565b820191906000526020600020905b8154815290600101906020018083116108d157829003601f168201915b505050505081526020019060010190610856565b50505050945083805480602002602001604051908101604052809291908181526020016000905b828210156109d5578382906000526020600020018054610948906113c3565b80601f0160208091040260200160405190810160405280929190818152602001828054610974906113c3565b80156109c15780601f10610996576101008083540402835291602001916109c1565b820191906000526020600020905b8154815290600101906020018083116109a457829003601f168201915b505050505081526020019060010190610929565b50505050935082805480602002602001604051908101604052809291908181526020016000905b82821015610aa8578382906000526020600020018054610a1b906113c3565b80601f0160208091040260200160405190810160405280929190818152602001828054610a47906113c3565b8015610a945780601f10610a6957610100808354040283529160200191610a94565b820191906000526020600020905b815481529060010190602001808311610a7757829003601f168201915b5050505050815260200190600101906109fc565b50505050925081805480602002602001604051908101604052809291908181526020016000905b82821015610b7b578382906000526020600020018054610aee906113c3565b80601f0160208091040260200160405190810160405280929190818152602001828054610b1a906113c3565b8015610b675780601f10610b3c57610100808354040283529160200191610b67565b820191906000526020600020905b815481529060010190602001808311610b4a57829003601f168201915b505050505081526020019060010190610acf565b50505050915080805480602002602001604051908101604052809291908181526020016000905b82821015610c4e578382906000526020600020018054610bc1906113c3565b80601f0160208091040260200160405190810160405280929190818152602001828054610bed906113c3565b8015610c3a5780601f10610c0f57610100808354040283529160200191610c3a565b820191906000526020600020905b815481529060010190602001808311610c1d57829003601f168201915b505050505081526020019060010190610ba2565b505050509050955095509550955095509550909192939495565b600081519050919050565b600082825260208201905092915050565b6000819050602082019050919050565b600081519050919050565b600082825260208201905092915050565b60005b83811015610cce578082015181840152602081019050610cb3565b60008484015250505050565b6000601f19601f8301169050919050565b6000610cf682610c94565b610d008185610c9f565b9350610d10818560208601610cb0565b610d1981610cda565b840191505092915050565b6000610d308383610ceb565b905092915050565b6000602082019050919050565b6000610d5082610c68565b610d5a8185610c73565b935083602082028501610d6c85610c84565b8060005b85811015610da85784840389528151610d898582610d24565b9450610d9483610d38565b925060208a01995050600181019050610d70565b50829750879550505050505092915050565b60006060820190508181036000830152610dd48186610d45565b90508181036020830152610de88185610d45565b90508181036040830152610dfc8184610d45565b9050949350505050565b6000604051905090565b600080fd5b600080fd5b600080fd5b600080fd5b7f4e487b7100000000000000000000000000000000000000000000000000000000600052604160045260246000fd5b610e5c82610cda565b810181811067ffffffffffffffff82111715610e7b57610e7a610e24565b5b80604052505050565b6000610e8e610e06565b9050610e9a8282610e53565b919050565b600067ffffffffffffffff821115610eba57610eb9610e24565b5b610ec382610cda565b9050602081019050919050565b82818337600083830152505050565b6000610ef2610eed84610e9f565b610e84565b905082815260208101848484011115610f0e57610f0d610e1f565b5b610f19848285610ed0565b509392505050565b600082601f830112610f3657610f35610e1a565b5b8135610f46848260208601610edf565b91505092915050565b600080600080600060a08688031215610f6b57610f6a610e10565b5b600086013567ffffffffffffffff811115610f8957610f88610e15565b5b610f9588828901610f21565b955050602086013567ffffffffffffffff811115610fb657610fb5610e15565b5b610fc288828901610f21565b945050604086013567ffffffffffffffff811115610fe357610fe2610e15565b5b610fef88828901610f21565b935050606086013567ffffffffffffffff8111156110105761100f610e15565b5b61101c88828901610f21565b925050608086013567ffffffffffffffff81111561103d5761103c610e15565b5b61104988828901610f21565b9150509295509295909350565b60008060006060848603121561106f5761106e610e10565b5b600084013567ffffffffffffffff81111561108d5761108c610e15565b5b61109986828701610f21565b935050602084013567ffffffffffffffff8111156110ba576110b9610e15565b5b6110c686828701610f21565b925050604084013567ffffffffffffffff8111156110e7576110e6610e15565b5b6110f386828701610f21565b9150509250925092565b6000819050919050565b611110816110fd565b811461111b57600080fd5b50565b60008135905061112d81611107565b92915050565b60006020828403121561114957611148610e10565b5b60006111578482850161111e565b91505092915050565b600080600080600060a0868803121561117c5761117b610e10565b5b600061118a8882890161111e565b955050602086013567ffffffffffffffff8111156111ab576111aa610e15565b5b6111b788828901610f21565b945050604086013567ffffffffffffffff8111156111d8576111d7610e15565b5b6111e488828901610f21565b935050606086013567ffffffffffffffff81111561120557611204610e15565b5b61121188828901610f21565b925050608086013567ffffffffffffffff81111561123257611231610e15565b5b61123e88828901610f21565b9150509295509295909350565b600081519050919050565b600082825260208201905092915050565b6000819050602082019050919050565b611280816110fd565b82525050565b60006112928383611277565b60208301905092915050565b6000602082019050919050565b60006112b68261124b565b6112c08185611256565b93506112cb83611267565b8060005b838110156112fc5781516112e38882611286565b97506112ee8361129e565b9250506001810190506112cf565b5085935050505092915050565b600060c082019050818103600083015261132381896112ab565b905081810360208301526113378188610d45565b9050818103604083015261134b8187610d45565b9050818103606083015261135f8186610d45565b905081810360808301526113738185610d45565b905081810360a08301526113878184610d45565b9050979650505050505050565b7f4e487b7100000000000000000000000000000000000000000000000000000000600052602260045260246000fd5b600060028204905060018216806113db57607f821691505b6020821081036113ee576113ed611394565b5b50919050565b7f4e487b7100000000000000000000000000000000000000000000000000000000600052601160045260246000fd5b600061142e826110fd565b9150611439836110fd565b9250828201905080821115611451576114506113f4565b5b92915050565b60008190508160005260206000209050919050565b60006020601f8301049050919050565b600082821b905092915050565b6000600883026114b97fffffffffffffffffffffffffffffffffffffffffffffffffffffffffffffffff8261147c565b6114c3868361147c565b95508019841693508086168417925050509392505050565b6000819050919050565b60006115006114fb6114f6846110fd565b6114db565b6110fd565b9050919050565b6000819050919050565b61151a836114e5565b61152e61152682611507565b848454611489565b825550505050565b600090565b611543611536565b61154e818484611511565b505050565b5b818110156115725761156760008261153b565b600181019050611554565b5050565b601f8211156115b75761158881611457565b6115918461146c565b810160208510156115a0578190505b6115b46115ac8561146c565b830182611553565b50505b505050565b600082821c905092915050565b60006115da600019846008026115bc565b1980831691505092915050565b60006115f383836115c9565b9150826002028217905092915050565b61160c82610c94565b67ffffffffffffffff81111561162557611624610e24565b5b61162f82546113c3565b61163a828285611576565b600060209050601f83116001811461166d576000841561165b578287015190505b61166585826115e7565b8655506116cd565b601f19841661167b86611457565b60005b828110156116a35784890151825560018201915060208501945060208101905061167e565b868310156116c057848901516116bc601f8916826115c9565b8355505b6001600288020188555050505b505050505050565b600081905092915050565b60006116eb82610c94565b6116f581856116d5565b9350611705818560208601610cb0565b80840191505092915050565b600061171d82846116e0565b915081905092915050565b600082825260208201905092915050565b7f7573657220616c72656164792065786974730000000000000000000000000000600082015250565b600061176f601283611728565b915061177a82611739565b602082019050919050565b6000602082019050818103600083015261179e81611762565b9050919050565b7f4e487b7100000000000000000000000000000000000000000000000000000000600052603260045260246000fd5b60006117df826110fd565b91507fffffffffffffffffffffffffffffffffffffffffffffffffffffffffffffffff8203611811576118106113f4565b5b60018201905091905056fea264697066735822122020ed24a907d7ff9e0e7f88e2874ceab1df1338fe62b709c3bbadf1ce3f2d0cc264736f6c63430008130033",
  "immutableReferences": {},
  "source": "// SPDX-License-Identifier: MIT\npragma solidity >=0.4.22 <0.9.0;\n\ncontract PasswordsManager {\n\n  string[] _usernames;\n  string[] _passwords;\n  string[] _secretkeys;\n\n  uint[] _ids;\n  string[] _owners;\n  string[] _websitenames;\n  string[] _websiteusernames;\n  string[] _websitepasswords;\n  string[] _websitenotes;\n\n  mapping(string=>bool) _registeredusers;\n  uint id;\n\n  constructor(){\n    id=0;\n  }\n\n  function addUser(string memory username,string memory password,string memory secretkey) public {\n    require(!_registeredusers[username],\"user already exits\");\n    \n    _usernames.push(username);\n    _passwords.push(password);\n    _secretkeys.push(secretkey);\n    _registeredusers[username]=true;\n  }\n\n  function viewUsers() public view returns(string[] memory,string[] memory,string[] memory){\n    return (_usernames,_passwords,_secretkeys);\n  }\n\n  function addPassword(string memory owner,string memory website,string memory username,string memory password,string memory notes) public {\n    id+=1;\n    _ids.push(id);\n    _owners.push(owner);\n    _websitenames.push(website);\n    _websiteusernames.push(username);\n    _websitepasswords.push(password);\n    _websitenotes.push(notes);\n  }\n\n  function viewPasswords() public view returns(uint[] memory,string[] memory,string[] memory,string[] memory,string[] memory,string[] memory) {\n    return(_ids,_owners,_websitenames,_websiteusernames,_websitepasswords,_websitenotes);\n  }\n\n  function updatePassword(uint id1,string memory website,string memory username,string memory password, string memory notes) public {\n    uint i;\n\n    for(i=0;i<_ids.length;i++){\n      if(_ids[i]==id1){\n        _websitenames[i]=website;\n        _websiteusernames[i]=username;\n        _websitepasswords[i]=password;\n        _websitenotes[i]=notes;\n      }\n    }\n  }\n\n  function deletePassword(uint id1) public{\n    uint i;\n    for(i=0;i<_ids.length;i++){\n      if (id1==_ids[i]) {\n        _owners[i]=\"\";\n      }\n    }\n  }\n\n}\n",
  "sourcePath": "C:\\Users\\TITAN\\Desktop\\passwords-manager-blockchain-main\\contracts\\PasswordsManager.sol",
  "compiler": {
    "name": "solc",
    "version": "0.8.19+commit.7dd6d404.Emscripten.clang"
  },
  "schemaVersion": "3.4.16",
  "updatedAt": "2025-11-06T09:31:44.190Z",
  "networkType": "ethereum",
  "devdoc": {
    "kind": "dev",
    "methods": {},
    "version": 1
  },
  "userdoc": {
    "kind": "user",
    "methods": {},
    "version": 1
  }
}